{"abi":[{"type":"constructor","inputs":[],"stateMutability":"nonpayable"},{"type":"function","name":"DOMAIN_SEPARATOR","inputs":[],"outputs":[{"name":"","type":"bytes32","internalType":"bytes32"}],"stateMutability":"view"},{"type":"function","name":"UPGRADE_INTERFACE_VERSION","inputs":[],"outputs":[{"name":"","type":"string","internalType":"string"}],"stateMutability":"view"},{"type":"function","name":"addStrategy","inputs":[{"name":"strategy_","type":"address","internalType":"contract IVault"}],"outputs":[],"stateMutability":"nonpayable"},{"type":"function","name":"allowance","inputs":[{"name":"owner","type":"address","internalType":"address"},{"name":"spender","type":"address","internalType":"address"}],"outputs":[{"name":"","type":"uint256","internalType":"uint256"}],"stateMutability":"view"},{"type":"function","name":"approve","inputs":[{"name":"spender","type":"address","internalType":"address"},{"name":"amount","type":"uint256","internalType":"uint256"}],"outputs":[{"name":"","type":"bool","internalType":"bool"}],"stateMutability":"nonpayable"},{"type":"function","name":"asset","inputs":[],"outputs":[{"name":"","type":"address","internalType":"address"}],"stateMutability":"view"},{"type":"function","name":"auth","inputs":[],"outputs":[{"name":"","type":"address","internalType":"contract Auth"}],"stateMutability":"view"},{"type":"function","name":"balanceOf","inputs":[{"name":"account","type":"address","internalType":"address"}],"outputs":[{"name":"","type":"uint256","internalType":"uint256"}],"stateMutability":"view"},{"type":"function","name":"convertToAssets","inputs":[{"name":"shares","type":"uint256","internalType":"uint256"}],"outputs":[{"name":"","type":"uint256","internalType":"uint256"}],"stateMutability":"view"},{"type":"function","name":"convertToShares","inputs":[{"name":"assets","type":"uint256","internalType":"uint256"}],"outputs":[{"name":"","type":"uint256","internalType":"uint256"}],"stateMutability":"view"},{"type":"function","name":"decimals","inputs":[],"outputs":[{"name":"","type":"uint8","internalType":"uint8"}],"stateMutability":"view"},{"type":"function","name":"deposit","inputs":[{"name":"assets","type":"uint256","internalType":"uint256"},{"name":"receiver","type":"address","internalType":"address"}],"outputs":[{"name":"","type":"uint256","internalType":"uint256"}],"stateMutability":"nonpayable"},{"type":"function","name":"eip712Domain","inputs":[],"outputs":[{"name":"fields","type":"bytes1","internalType":"bytes1"},{"name":"name","type":"string","internalType":"string"},{"name":"version","type":"string","internalType":"string"},{"name":"chainId","type":"uint256","internalType":"uint256"},{"name":"verifyingContract","type":"address","internalType":"address"},{"name":"salt","type":"bytes32","internalType":"bytes32"},{"name":"extensions","type":"uint256[]","internalType":"uint256[]"}],"stateMutability":"view"},{"type":"function","name":"feeRecipient","inputs":[],"outputs":[{"name":"","type":"address","internalType":"address"}],"stateMutability":"view"},{"type":"function","name":"highWaterMark","inputs":[],"outputs":[{"name":"","type":"uint256","internalType":"uint256"}],"stateMutability":"view"},{"type":"function","name":"initialize","inputs":[{"name":"auth_","type":"address","internalType":"contract Auth"},{"name":"asset_","type":"address","internalType":"contract IERC20"},{"name":"name_","type":"string","internalType":"string"},{"name":"symbol_","type":"string","internalType":"string"},{"name":"fundingAccount","type":"address","internalType":"address"},{"name":"firstDepositAmount","type":"uint256","internalType":"uint256"},{"name":"strategies_","type":"address[]","internalType":"contract IVault[]"}],"outputs":[],"stateMutability":"nonpayable"},{"type":"function","name":"initialize","inputs":[{"name":"auth_","type":"address","internalType":"contract Auth"},{"name":"asset_","type":"address","internalType":"contract IERC20"},{"name":"name_","type":"string","internalType":"string"},{"name":"symbol_","type":"string","internalType":"string"},{"name":"fundingAccount_","type":"address","internalType":"address"},{"name":"firstDepositAmount_","type":"uint256","internalType":"uint256"}],"outputs":[],"stateMutability":"nonpayable"},{"type":"function","name":"isStrategy","inputs":[{"name":"strategy","type":"address","internalType":"contract IVault"}],"outputs":[{"name":"","type":"bool","internalType":"bool"}],"stateMutability":"view"},{"type":"function","name":"maxDeposit","inputs":[{"name":"receiver","type":"address","internalType":"address"}],"outputs":[{"name":"","type":"uint256","internalType":"uint256"}],"stateMutability":"view"},{"type":"function","name":"maxMint","inputs":[{"name":"receiver","type":"address","internalType":"address"}],"outputs":[{"name":"","type":"uint256","internalType":"uint256"}],"stateMutability":"view"},{"type":"function","name":"maxRedeem","inputs":[{"name":"owner","type":"address","internalType":"address"}],"outputs":[{"name":"","type":"uint256","internalType":"uint256"}],"stateMutability":"view"},{"type":"function","name":"maxWithdraw","inputs":[{"name":"owner","type":"address","internalType":"address"}],"outputs":[{"name":"","type":"uint256","internalType":"uint256"}],"stateMutability":"view"},{"type":"function","name":"mint","inputs":[{"name":"shares","type":"uint256","internalType":"uint256"},{"name":"receiver","type":"address","internalType":"address"}],"outputs":[{"name":"","type":"uint256","internalType":"uint256"}],"stateMutability":"nonpayable"},{"type":"function","name":"multicall","inputs":[{"name":"data","type":"bytes[]","internalType":"bytes[]"}],"outputs":[{"name":"results","type":"bytes[]","internalType":"bytes[]"}],"stateMutability":"nonpayable"},{"type":"function","name":"name","inputs":[],"outputs":[{"name":"","type":"string","internalType":"string"}],"stateMutability":"view"},{"type":"function","name":"nonces","inputs":[{"name":"owner","type":"address","internalType":"address"}],"outputs":[{"name":"","type":"uint256","internalType":"uint256"}],"stateMutability":"view"},{"type":"function","name":"pause","inputs":[],"outputs":[],"stateMutability":"nonpayable"},{"type":"function","name":"paused","inputs":[],"outputs":[{"name":"","type":"bool","internalType":"bool"}],"stateMutability":"view"},{"type":"function","name":"performanceFeePercent","inputs":[],"outputs":[{"name":"","type":"uint256","internalType":"uint256"}],"stateMutability":"view"},{"type":"function","name":"permit","inputs":[{"name":"owner","type":"address","internalType":"address"},{"name":"spender","type":"address","internalType":"address"},{"name":"value","type":"uint256","internalType":"uint256"},{"name":"deadline","type":"uint256","internalType":"uint256"},{"name":"v","type":"uint8","internalType":"uint8"},{"name":"r","type":"bytes32","internalType":"bytes32"},{"name":"s","type":"bytes32","internalType":"bytes32"}],"outputs":[],"stateMutability":"nonpayable"},{"type":"function","name":"previewDeposit","inputs":[{"name":"assets","type":"uint256","internalType":"uint256"}],"outputs":[{"name":"","type":"uint256","internalType":"uint256"}],"stateMutability":"view"},{"type":"function","name":"previewMint","inputs":[{"name":"shares","type":"uint256","internalType":"uint256"}],"outputs":[{"name":"","type":"uint256","internalType":"uint256"}],"stateMutability":"view"},{"type":"function","name":"previewRedeem","inputs":[{"name":"shares","type":"uint256","internalType":"uint256"}],"outputs":[{"name":"","type":"uint256","internalType":"uint256"}],"stateMutability":"view"},{"type":"function","name":"previewWithdraw","inputs":[{"name":"assets","type":"uint256","internalType":"uint256"}],"outputs":[{"name":"","type":"uint256","internalType":"uint256"}],"stateMutability":"view"},{"type":"function","name":"proxiableUUID","inputs":[],"outputs":[{"name":"","type":"bytes32","internalType":"bytes32"}],"stateMutability":"view"},{"type":"function","name":"rebalance","inputs":[{"name":"strategyFrom","type":"address","internalType":"contract IVault"},{"name":"strategyTo","type":"address","internalType":"contract IVault"},{"name":"amount","type":"uint256","internalType":"uint256"},{"name":"maxSlippagePercent","type":"uint256","internalType":"uint256"}],"outputs":[],"stateMutability":"nonpayable"},{"type":"function","name":"rebalanceMaxSlippagePercent","inputs":[],"outputs":[{"name":"","type":"uint256","internalType":"uint256"}],"stateMutability":"view"},{"type":"function","name":"redeem","inputs":[{"name":"shares","type":"uint256","internalType":"uint256"},{"name":"receiver","type":"address","internalType":"address"},{"name":"owner","type":"address","internalType":"address"}],"outputs":[{"name":"","type":"uint256","internalType":"uint256"}],"stateMutability":"nonpayable"},{"type":"function","name":"removeStrategy","inputs":[{"name":"strategyToRemove","type":"address","internalType":"contract IVault"},{"name":"strategyToReceiveAssets","type":"address","internalType":"contract IVault"},{"name":"amount","type":"uint256","internalType":"uint256"},{"name":"maxSlippagePercent","type":"uint256","internalType":"uint256"}],"outputs":[],"stateMutability":"nonpayable"},{"type":"function","name":"reorderStrategies","inputs":[{"name":"newStrategiesOrder","type":"address[]","internalType":"contract IVault[]"}],"outputs":[],"stateMutability":"nonpayable"},{"type":"function","name":"setFeeRecipient","inputs":[{"name":"feeRecipient_","type":"address","internalType":"address"}],"outputs":[],"stateMutability":"nonpayable"},{"type":"function","name":"setPerformanceFeePercent","inputs":[{"name":"performanceFeePercent_","type":"uint256","internalType":"uint256"}],"outputs":[],"stateMutability":"nonpayable"},{"type":"function","name":"setRebalanceMaxSlippagePercent","inputs":[{"name":"rebalanceMaxSlippagePercent_","type":"uint256","internalType":"uint256"}],"outputs":[],"stateMutability":"nonpayable"},{"type":"function","name":"setTotalAssetsCap","inputs":[{"name":"totalAssetsCap_","type":"uint256","internalType":"uint256"}],"outputs":[],"stateMutability":"nonpayable"},{"type":"function","name":"strategies","inputs":[{"name":"index","type":"uint256","internalType":"uint256"}],"outputs":[{"name":"","type":"address","internalType":"contract IVault"}],"stateMutability":"view"},{"type":"function","name":"strategies","inputs":[],"outputs":[{"name":"","type":"address[]","internalType":"contract IVault[]"}],"stateMutability":"view"},{"type":"function","name":"strategiesCount","inputs":[],"outputs":[{"name":"","type":"uint256","internalType":"uint256"}],"stateMutability":"view"},{"type":"function","name":"symbol","inputs":[],"outputs":[{"name":"","type":"string","internalType":"string"}],"stateMutability":"view"},{"type":"function","name":"totalAssets","inputs":[],"outputs":[{"name":"total","type":"uint256","internalType":"uint256"}],"stateMutability":"view"},{"type":"function","name":"totalAssetsCap","inputs":[],"outputs":[{"name":"","type":"uint256","internalType":"uint256"}],"stateMutability":"view"},{"type":"function","name":"totalSupply","inputs":[],"outputs":[{"name":"","type":"uint256","internalType":"uint256"}],"stateMutability":"view"},{"type":"function","name":"transfer","inputs":[{"name":"to","type":"address","internalType":"address"},{"name":"amount","type":"uint256","internalType":"uint256"}],"outputs":[{"name":"","type":"bool","internalType":"bool"}],"stateMutability":"nonpayable"},{"type":"function","name":"transferFrom","inputs":[{"name":"from","type":"address","internalType":"address"},{"name":"to","type":"address","internalType":"address"},{"name":"amount","type":"uint256","internalType":"uint256"}],"outputs":[{"name":"","type":"bool","internalType":"bool"}],"stateMutability":"nonpayable"},{"type":"function","name":"unpause","inputs":[],"outputs":[],"stateMutability":"nonpayable"},{"type":"function","name":"upgradeToAndCall","inputs":[{"name":"newImplementation","type":"address","internalType":"address"},{"name":"data","type":"bytes","internalType":"bytes"}],"outputs":[],"stateMutability":"payable"},{"type":"function","name":"version","inputs":[],"outputs":[{"name":"","type":"string","internalType":"string"}],"stateMutability":"pure"},{"type":"function","name":"withdraw","inputs":[{"name":"assets","type":"uint256","internalType":"uint256"},{"name":"receiver","type":"address","internalType":"address"},{"name":"owner","type":"address","internalType":"address"}],"outputs":[{"name":"","type":"uint256","internalType":"uint256"}],"stateMutability":"nonpayable"},{"type":"event","name":"Approval","inputs":[{"name":"owner","type":"address","indexed":true,"internalType":"address"},{"name":"spender","type":"address","indexed":true,"internalType":"address"},{"name":"value","type":"uint256","indexed":false,"internalType":"uint256"}],"anonymous":false},{"type":"event","name":"AuthSet","inputs":[{"name":"auth","type":"address","indexed":true,"internalType":"address"}],"anonymous":false},{"type":"event","name":"Deposit","inputs":[{"name":"sender","type":"address","indexed":true,"internalType":"address"},{"name":"owner","type":"address","indexed":true,"internalType":"address"},{"name":"assets","type":"uint256","indexed":false,"internalType":"uint256"},{"name":"shares","type":"uint256","indexed":false,"internalType":"uint256"}],"anonymous":false},{"type":"event","name":"DepositFailed","inputs":[{"name":"strategy","type":"address","indexed":true,"internalType":"address"},{"name":"amount","type":"uint256","indexed":false,"internalType":"uint256"}],"anonymous":false},{"type":"event","name":"EIP712DomainChanged","inputs":[],"anonymous":false},{"type":"event","name":"FeeRecipientSet","inputs":[{"name":"feeRecipientBefore","type":"address","indexed":true,"internalType":"address"},{"name":"feeRecipientAfter","type":"address","indexed":true,"internalType":"address"}],"anonymous":false},{"type":"event","name":"HighWaterMarkUpdated","inputs":[{"name":"highWaterMarkBefore","type":"uint256","indexed":false,"internalType":"uint256"},{"name":"highWaterMarkAfter","type":"uint256","indexed":false,"internalType":"uint256"}],"anonymous":false},{"type":"event","name":"Initialized","inputs":[{"name":"version","type":"uint64","indexed":false,"internalType":"uint64"}],"anonymous":false},{"type":"event","name":"Paused","inputs":[{"name":"account","type":"address","indexed":false,"internalType":"address"}],"anonymous":false},{"type":"event","name":"PerformanceFeeMinted","inputs":[{"name":"to","type":"address","indexed":true,"internalType":"address"},{"name":"shares","type":"uint256","indexed":false,"internalType":"uint256"},{"name":"assets","type":"uint256","indexed":false,"internalType":"uint256"}],"anonymous":false},{"type":"event","name":"PerformanceFeePercentSet","inputs":[{"name":"performanceFeePercentBefore","type":"uint256","indexed":true,"internalType":"uint256"},{"name":"performanceFeePercentAfter","type":"uint256","indexed":true,"internalType":"uint256"}],"anonymous":false},{"type":"event","name":"RebalanceMaxSlippagePercentSet","inputs":[{"name":"oldRebalanceMaxSlippagePercent","type":"uint256","indexed":false,"internalType":"uint256"},{"name":"newRebalanceMaxSlippagePercent","type":"uint256","indexed":false,"internalType":"uint256"}],"anonymous":false},{"type":"event","name":"Rebalanced","inputs":[{"name":"strategyFrom","type":"address","indexed":true,"internalType":"address"},{"name":"strategyTo","type":"address","indexed":true,"internalType":"address"},{"name":"rebalancedAmount","type":"uint256","indexed":false,"internalType":"uint256"},{"name":"maxSlippagePercent","type":"uint256","indexed":false,"internalType":"uint256"}],"anonymous":false},{"type":"event","name":"StrategyAdded","inputs":[{"name":"strategy","type":"address","indexed":true,"internalType":"address"}],"anonymous":false},{"type":"event","name":"StrategyRemoved","inputs":[{"name":"strategy","type":"address","indexed":true,"internalType":"address"}],"anonymous":false},{"type":"event","name":"StrategyReordered","inputs":[{"name":"strategyOld","type":"address","indexed":true,"internalType":"address"},{"name":"strategyNew","type":"address","indexed":true,"internalType":"address"},{"name":"index","type":"uint256","indexed":true,"internalType":"uint256"}],"anonymous":false},{"type":"event","name":"TotalAssetsCapSet","inputs":[{"name":"totalAssetsCapBefore","type":"uint256","indexed":true,"internalType":"uint256"},{"name":"totalAssetsCapAfter","type":"uint256","indexed":true,"internalType":"uint256"}],"anonymous":false},{"type":"event","name":"Transfer","inputs":[{"name":"from","type":"address","indexed":true,"internalType":"address"},{"name":"to","type":"address","indexed":true,"internalType":"address"},{"name":"value","type":"uint256","indexed":false,"internalType":"uint256"}],"anonymous":false},{"type":"event","name":"Unpaused","inputs":[{"name":"account","type":"address","indexed":false,"internalType":"address"}],"anonymous":false},{"type":"event","name":"Upgraded","inputs":[{"name":"implementation","type":"address","indexed":true,"internalType":"address"}],"anonymous":false},{"type":"event","name":"VaultStatus","inputs":[{"name":"totalShares","type":"uint256","indexed":false,"internalType":"uint256"},{"name":"totalAssets","type":"uint256","indexed":false,"internalType":"uint256"}],"anonymous":false},{"type":"event","name":"Withdraw","inputs":[{"name":"sender","type":"address","indexed":true,"internalType":"address"},{"name":"receiver","type":"address","indexed":true,"internalType":"address"},{"name":"owner","type":"address","indexed":true,"internalType":"address"},{"name":"assets","type":"uint256","indexed":false,"internalType":"uint256"},{"name":"shares","type":"uint256","indexed":false,"internalType":"uint256"}],"anonymous":false},{"type":"event","name":"WithdrawFailed","inputs":[{"name":"strategy","type":"address","indexed":true,"internalType":"address"},{"name":"amount","type":"uint256","indexed":false,"internalType":"uint256"}],"anonymous":false},{"type":"error","name":"AccessControlUnauthorizedAccount","inputs":[{"name":"account","type":"address","internalType":"address"},{"name":"neededRole","type":"bytes32","internalType":"bytes32"}]},{"type":"error","name":"AddressEmptyCode","inputs":[{"name":"target","type":"address","internalType":"address"}]},{"type":"error","name":"ArrayLengthMismatch","inputs":[{"name":"expectedLength","type":"uint256","internalType":"uint256"},{"name":"actualLength","type":"uint256","internalType":"uint256"}]},{"type":"error","name":"CannotDepositToStrategies","inputs":[{"name":"assets","type":"uint256","internalType":"uint256"},{"name":"shares","type":"uint256","internalType":"uint256"},{"name":"remainingAssets","type":"uint256","internalType":"uint256"}]},{"type":"error","name":"CannotWithdrawFromStrategies","inputs":[{"name":"assets","type":"uint256","internalType":"uint256"},{"name":"shares","type":"uint256","internalType":"uint256"},{"name":"missingAssets","type":"uint256","internalType":"uint256"}]},{"type":"error","name":"ECDSAInvalidSignature","inputs":[]},{"type":"error","name":"ECDSAInvalidSignatureLength","inputs":[{"name":"length","type":"uint256","internalType":"uint256"}]},{"type":"error","name":"ECDSAInvalidSignatureS","inputs":[{"name":"s","type":"bytes32","internalType":"bytes32"}]},{"type":"error","name":"ERC1967InvalidImplementation","inputs":[{"name":"implementation","type":"address","internalType":"address"}]},{"type":"error","name":"ERC1967NonPayable","inputs":[]},{"type":"error","name":"ERC20InsufficientAllowance","inputs":[{"name":"spender","type":"address","internalType":"address"},{"name":"allowance","type":"uint256","internalType":"uint256"},{"name":"needed","type":"uint256","internalType":"uint256"}]},{"type":"error","name":"ERC20InsufficientBalance","inputs":[{"name":"sender","type":"address","internalType":"address"},{"name":"balance","type":"uint256","internalType":"uint256"},{"name":"needed","type":"uint256","internalType":"uint256"}]},{"type":"error","name":"ERC20InvalidApprover","inputs":[{"name":"approver","type":"address","internalType":"address"}]},{"type":"error","name":"ERC20InvalidReceiver","inputs":[{"name":"receiver","type":"address","internalType":"address"}]},{"type":"error","name":"ERC20InvalidSender","inputs":[{"name":"sender","type":"address","internalType":"address"}]},{"type":"error","name":"ERC20InvalidSpender","inputs":[{"name":"spender","type":"address","internalType":"address"}]},{"type":"error","name":"ERC2612ExpiredSignature","inputs":[{"name":"deadline","type":"uint256","internalType":"uint256"}]},{"type":"error","name":"ERC2612InvalidSigner","inputs":[{"name":"signer","type":"address","internalType":"address"},{"name":"owner","type":"address","internalType":"address"}]},{"type":"error","name":"ERC4626ExceededMaxDeposit","inputs":[{"name":"receiver","type":"address","internalType":"address"},{"name":"assets","type":"uint256","internalType":"uint256"},{"name":"max","type":"uint256","internalType":"uint256"}]},{"type":"error","name":"ERC4626ExceededMaxMint","inputs":[{"name":"receiver","type":"address","internalType":"address"},{"name":"shares","type":"uint256","internalType":"uint256"},{"name":"max","type":"uint256","internalType":"uint256"}]},{"type":"error","name":"ERC4626ExceededMaxRedeem","inputs":[{"name":"owner","type":"address","internalType":"address"},{"name":"shares","type":"uint256","internalType":"uint256"},{"name":"max","type":"uint256","internalType":"uint256"}]},{"type":"error","name":"ERC4626ExceededMaxWithdraw","inputs":[{"name":"owner","type":"address","internalType":"address"},{"name":"assets","type":"uint256","internalType":"uint256"},{"name":"max","type":"uint256","internalType":"uint256"}]},{"type":"error","name":"EnforcedPause","inputs":[]},{"type":"error","name":"ExpectedPause","inputs":[]},{"type":"error","name":"FailedCall","inputs":[]},{"type":"error","name":"InvalidAccountNonce","inputs":[{"name":"account","type":"address","internalType":"address"},{"name":"currentNonce","type":"uint256","internalType":"uint256"}]},{"type":"error","name":"InvalidInitialization","inputs":[]},{"type":"error","name":"InvalidMaxSlippagePercent","inputs":[{"name":"maxSlippagePercent","type":"uint256","internalType":"uint256"}]},{"type":"error","name":"InvalidStrategy","inputs":[{"name":"strategy","type":"address","internalType":"address"}]},{"type":"error","name":"MaxStrategiesExceeded","inputs":[{"name":"strategiesCount","type":"uint256","internalType":"uint256"},{"name":"maxStrategies","type":"uint256","internalType":"uint256"}]},{"type":"error","name":"NotInitializing","inputs":[]},{"type":"error","name":"NullAddress","inputs":[]},{"type":"error","name":"NullAmount","inputs":[]},{"type":"error","name":"PerformanceFeePercentTooHigh","inputs":[{"name":"performanceFeePercent","type":"uint256","internalType":"uint256"},{"name":"maximumPerformanceFeePercent","type":"uint256","internalType":"uint256"}]},{"type":"error","name":"ReentrancyGuardReentrantCall","inputs":[]},{"type":"error","name":"SafeERC20FailedOperation","inputs":[{"name":"token","type":"address","internalType":"address"}]},{"type":"error","name":"TransferredAmountLessThanMin","inputs":[{"name":"assetsBefore","type":"uint256","internalType":"uint256"},{"name":"assetsAfter","type":"uint256","internalType":"uint256"},{"name":"slippage","type":"uint256","internalType":"uint256"},{"name":"amount","type":"uint256","internalType":"uint256"},{"name":"maxSlippagePercent","type":"uint256","internalType":"uint256"}]},{"type":"error","name":"UUPSUnauthorizedCallContext","inputs":[]},{"type":"error","name":"UUPSUnsupportedProxiableUUID","inputs":[{"name":"slot","type":"bytes32","internalType":"bytes32"}]}],"bytecode":{"object":"0x60a060405230608052348015610013575f80fd5b5061001c610029565b610024610029565b6100db565b7ff0c57e16840df040f15088dc2f81fe391c3923bec73e23a9662efc9c229c6a00805468010000000000000000900460ff16156100795760405163f92ee8a960e01b815260040160405180910390fd5b80546001600160401b03908116146100d85780546001600160401b0319166001600160401b0390811782556040519081527fc7f505b2f371ae2175ee4913f4499e1f2633a7b5936321eed1cdaeb6115181d29060200160405180910390a15b50565b6080516157b26101015f395f81816126150152818161263e015261276e01526157b25ff3fe608060405260043610610366575f3560e01c80636e553f65116101c8578063b460af94116100fd578063d905777e1161009d578063df652d411161006d578063df652d41146109b0578063e74b981b146109cf578063ef8b30f7146109ee578063f34e121714610a0d575f80fd5b8063d905777e1461093d578063d9f9027f1461095c578063dd62ed3e1461097d578063de9375f21461099c575f80fd5b8063c6e6f592116100d8578063c6e6f592146108c1578063ce96cb77146108e0578063d505accf146108ff578063d574ea3d1461091e575f80fd5b8063b460af9414610864578063ba08765214610883578063c63d75b6146108a2575f80fd5b806395d89b4111610168578063ab3ffa1a11610143578063ab3ffa1a146107ca578063ac9650d8146107e9578063ad3cb1cc14610815578063b3d7f6b914610845575f80fd5b806395d89b4114610778578063a01e3f741461078c578063a9059cbb146107ab575f80fd5b80638456cb59116101a35780638456cb591461070a57806384b0196e1461071e578063907d54051461074557806394bf804d14610759575f80fd5b80636e553f65146106ad57806370a08231146106cc5780637ecebe00146106eb575f80fd5b8063317b72241161029e57806348f5b9801161023e57806352d1902d1161021957806352d1902d1461062a57806354fd4d501461063e5780635c975abb1461066b5780636e49db1c1461068e575f80fd5b806348f5b980146105e45780634cdad506146105f85780634f1ef28614610617575f80fd5b80633f4ba83a116102795780633f4ba83a14610589578063402d267d1461059d57806345f663dd146105bc57806346904840146105d0575f80fd5b8063317b72241461052a5780633644e5151461054957806338d52e0f1461055d575f80fd5b80631e8410da116103095780632489f7f7116102e45780632489f7f7146104b257806329d7b732146104c65780632e8ebaae146104e5578063313ce56714610504575f80fd5b80631e8410da14610460578063223e54791461047457806323b872dd14610493575f80fd5b8063095ea7b311610344578063095ea7b3146103d15780630a28a47714610400578063114fbced1461041f57806318160ddd14610440575f80fd5b806301e1d1141461036a57806306fdde031461039157806307a2d13a146103b2575b5f80fd5b348015610375575f80fd5b5061037e610a2c565b6040519081526020015b60405180910390f35b34801561039c575f80fd5b506103a5610b53565b6040516103889190614b78565b3480156103bd575f80fd5b5061037e6103cc366004614b8a565b610bf8565b3480156103dc575f80fd5b506103f06103eb366004614bc0565b610c12565b6040519015158152602001610388565b34801561040b575f80fd5b5061037e61041a366004614b8a565b610c43565b34801561042a575f80fd5b5061043e610439366004614b8a565b610c4f565b005b34801561044b575f80fd5b505f8051602061569d8339815191525461037e565b34801561046b575f80fd5b5061037e610c91565b34801561047f575f80fd5b5061043e61048e366004614bea565b610cb2565b34801561049e575f80fd5b506103f06104ad366004614c05565b610d09565b3480156104bd575f80fd5b5061037e610d3c565b3480156104d1575f80fd5b5061043e6104e0366004614d7b565b610d53565b3480156104f0575f80fd5b506103f06104ff366004614bea565b610f14565b34801561050f575f80fd5b50610518610f26565b60405160ff9091168152602001610388565b348015610535575f80fd5b5061043e610544366004614b8a565b610f2f565b348015610554575f80fd5b5061037e610f57565b348015610568575f80fd5b50610571610f60565b6040516001600160a01b039091168152602001610388565b348015610594575f80fd5b5061043e610f8e565b3480156105a8575f80fd5b5061037e6105b7366004614bea565b610fce565b3480156105c7575f80fd5b5061037e610fe8565b3480156105db575f80fd5b50610571610ff9565b3480156105ef575f80fd5b5061037e611031565b348015610603575f80fd5b5061037e610612366004614b8a565b611042565b61043e610625366004614e42565b61104d565b348015610635575f80fd5b5061037e61106c565b348015610649575f80fd5b506040805180820190915260058152640302e312e360dc1b60208201526103a5565b348015610676575f80fd5b505f8051602061573d8339815191525460ff166103f0565b348015610699575f80fd5b5061043e6106a8366004614ea1565b611087565b3480156106b8575f80fd5b5061037e6106c7366004614ee4565b6111c4565b3480156106d7575f80fd5b5061037e6106e6366004614bea565b6111df565b3480156106f6575f80fd5b5061037e610705366004614bea565b61120f565b348015610715575f80fd5b5061043e611219565b348015610729575f80fd5b50610732611253565b6040516103889796959493929190614f12565b348015610750575f80fd5b5061037e6112fc565b348015610764575f80fd5b5061037e610773366004614ee4565b61130d565b348015610783575f80fd5b506103a5611328565b348015610797575f80fd5b5061043e6107a6366004614fa8565b611366565b3480156107b6575f80fd5b506103f06107c5366004614bc0565b611542565b3480156107d5575f80fd5b5061043e6107e4366004614ea1565b611555565b3480156107f4575f80fd5b50610808610803366004615092565b611745565b60405161038891906150d0565b348015610820575f80fd5b506103a5604051806040016040528060058152602001640352e302e360dc1b81525081565b348015610850575f80fd5b5061037e61085f366004614b8a565b61182a565b34801561086f575f80fd5b5061037e61087e366004615133565b611836565b34801561088e575f80fd5b5061037e61089d366004615133565b611852565b3480156108ad575f80fd5b5061037e6108bc366004614bea565b61186e565b3480156108cc575f80fd5b5061037e6108db366004614b8a565b6118ad565b3480156108eb575f80fd5b5061037e6108fa366004614bea565b6118bf565b34801561090a575f80fd5b5061043e610919366004615172565b6118d4565b348015610929575f80fd5b50610571610938366004614b8a565b611a29565b348015610948575f80fd5b5061037e610957366004614bea565b611a6c565b348015610967575f80fd5b50610970611aa3565b60405161038891906151e3565b348015610988575f80fd5b5061037e61099736600461522e565b611ab5565b3480156109a7575f80fd5b50610571611afe565b3480156109bb575f80fd5b5061043e6109ca366004614b8a565b611b1d565b3480156109da575f80fd5b5061043e6109e9366004614bea565b611b38565b3480156109f9575f80fd5b5061037e610a08366004614b8a565b611b53565b348015610a18575f80fd5b5061043e610a27366004615092565b611b5e565b5f8051602061571d83398151915280545f9190825b81811015610b4d575f835f018281548110610a5e57610a5e61525a565b5f918252602090912001546040516370a0823160e01b81523060048201526001600160a01b03909116915081906307a2d13a9082906370a0823190602401602060405180830381865afa158015610ab7573d5f803e3d5ffd5b505050506040513d601f19601f82011682018060405250810190610adb919061526e565b6040518263ffffffff1660e01b8152600401610af991815260200190565b602060405180830381865afa158015610b14573d5f803e3d5ffd5b505050506040513d601f19601f82011682018060405250810190610b38919061526e565b610b429086615299565b945050600101610a41565b50505090565b60605f5f8051602061567d8339815191525b9050806003018054610b76906152ac565b80601f0160208091040260200160405190810160405280929190818152602001828054610ba2906152ac565b8015610bed5780601f10610bc457610100808354040283529160200191610bed565b820191905f5260205f20905b815481529060010190602001808311610bd057829003601f168201915b505050505091505090565b5f610c01611e20565b610c0a82611042565b90505b919050565b5f610c1b611e4f565b610c258383611e86565b9050610c3d60015f8051602061575d83398151915255565b92915050565b5f610c0a826001611eb0565b610c57611e4f565b5f8051602061565d833981519152610c6e81611ef4565b610c7782611f9e565b50610c8e60015f8051602061575d83398151915255565b50565b5f610c9a611e20565b505f805160206156fd8339815191525490565b905090565b610cba611e4f565b5f8051602061565d833981519152610cd181611ef4565b610cea82610cdd610f60565b610ce5611afe565b612006565b50610cf361222b565b610c8e60015f8051602061575d83398151915255565b5f610d12611e4f565b610d1d848484612283565b9050610d3560015f8051602061575d83398151915255565b9392505050565b5f610d45611e20565b610d4d611aa3565b51905090565b5f610d5c6122a6565b805490915060ff600160401b82041615906001600160401b03165f81158015610d825750825b90505f826001600160401b03166001148015610d9d5750303b155b905081158015610dab575080155b15610dc95760405163f92ee8a960e01b815260040160405180910390fd5b845467ffffffffffffffff191660011785558315610df357845460ff60401b1916600160401b1785555b604051632404341f60e21b81525f600482018190526024820152610e6a906001600160a01b038e1690639010d07c90604401602060405180830381865afa158015610e40573d5f803e3d5ffd5b505050506040513d601f19601f82011682018060405250810190610e6491906152e4565b5f6122ce565b5f5b8651811015610ea157610e99878281518110610e8a57610e8a61525a565b60200260200101518d8f612006565b600101610e6c565b50610eb2662386f26fc100006122e8565b610ec08c8c8c8c8c8c611366565b8315610f0657845460ff60401b19168555604051600181527fc7f505b2f371ae2175ee4913f4499e1f2633a7b5936321eed1cdaeb6115181d29060200160405180910390a15b505050505050505050505050565b5f610f1d611e20565b610c0a8261238a565b5f610cad6123fb565b610f37611e4f565b5f8051602061565d833981519152610f4e81611ef4565b610c77826122e8565b5f610cad61243d565b7f0773e532dfede91f04b12a73d3d2acd361424f41f76b4fb79f090161e36b4e00546001600160a01b031690565b610f96611e4f565b5f8051602061565d833981519152610fad81611ef4565b610fb5612446565b50610fcc60015f8051602061575d83398151915255565b565b5f610c0a610fda6124a5565b610fe38461255c565b612593565b5f610ff1611e20565b610cad6125a2565b5f611002611e20565b507f8133214f360747da779e5436efd7332b025d67830fc92a23fa9b9e5e4b87fd02546001600160a01b031690565b5f61103a611e20565b610cad6125bb565b5f610c0a825f6125cf565b61105561260a565b61105e82612698565b61106882826126a2565b5050565b5f611075612763565b505f805160206156dd83398151915290565b61108f611e4f565b6110976127ac565b7f17a8e30262c1f919c33056d877a3c22b95c2f5e4dac44683c1c2323cd79fbdb06110c181611ef4565b6110cd82610fe36127d2565b91506110d88561238a565b61110557604051633ae252cd60e21b81526001600160a01b03861660048201526024015b60405180910390fd5b61110e8461238a565b61113657604051633ae252cd60e21b81526001600160a01b03851660048201526024016110fc565b836001600160a01b0316856001600160a01b03160361117357604051633ae252cd60e21b81526001600160a01b03851660048201526024016110fc565b825f0361119357604051630e5a744960e41b815260040160405180910390fd5b61119f858585856127e6565b506111a861222b565b6111be60015f8051602061575d83398151915255565b50505050565b5f6111cd611e4f565b6111d5612df2565b610c258383612f63565b5f805f8051602061567d8339815191525b6001600160a01b039093165f9081526020939093525050604090205490565b5f610c0a82612f80565b611221611e4f565b7f55435dd261a4b9b3364963f7738a7a662ad9c84396d64be3365284bb7f0a504161124b81611ef4565b610fb5612fa8565b5f60608082808083815f805160206156bd833981519152805490915015801561127e57506001810154155b6112c25760405162461bcd60e51b81526020600482015260156024820152741152540dcc4c8e88155b9a5b9a5d1a585b1a5e9959605a1b60448201526064016110fc565b6112ca612ff0565b6112d261302e565b604080515f80825260208201909252600f60f81b9c939b5091995046985030975095509350915050565b5f611305611e20565b610cad6127d2565b5f611316611e4f565b61131e612df2565b610c258383613044565b7f52c63247e1f47db19d5ce0460030c497f067ca4cebf71ba98eeadabe20bace0480546060915f8051602061567d83398151915291610b76906152ac565b5f61136f6122a6565b805490915060ff600160401b82041615906001600160401b03165f811580156113955750825b90505f826001600160401b031660011480156113b05750303b155b9050811580156113be575080155b156113dc5760405163f92ee8a960e01b815260040160405180910390fd5b845467ffffffffffffffff19166001178555831561140657845460ff60401b1916600160401b1785555b61140f8a613057565b6114198989613068565b6114228961307a565b61142a6130a5565b6114326130b5565b61143a6130b5565b6114426130b5565b6001600160a01b038b166114695760405163e99d5ac560e01b815260040160405180910390fd5b855f0361148957604051630e5a744960e41b815260040160405180910390fd5b5f8051602061563d83398151915280546001600160a01b0319166001600160a01b038d1690811782556040517ff8c4af92684d0fd7f652724eed9174e4842c3a2a49b2f0809fd721f6dd8b172d905f90a26114e45f19611f9e565b6114ee88886130bd565b50831561153557845460ff60401b19168555604051600181527fc7f505b2f371ae2175ee4913f4499e1f2633a7b5936321eed1cdaeb6115181d29060200160405180910390a15b5050505050505050505050565b5f61154b611e4f565b610c258383613110565b61155d611e4f565b7f55435dd261a4b9b3364963f7738a7a662ad9c84396d64be3365284bb7f0a504161158781611ef4565b6115908561238a565b6115b857604051633ae252cd60e21b81526001600160a01b03861660048201526024016110fc565b6115c18461238a565b6115e957604051633ae252cd60e21b81526001600160a01b03851660048201526024016110fc565b836001600160a01b0316856001600160a01b03160361162657604051633ae252cd60e21b81526001600160a01b03851660048201526024016110fc565b8215611715576040516370a0823160e01b81523060048201525f906001600160a01b038716906307a2d13a9082906370a0823190602401602060405180830381865afa158015611678573d5f803e3d5ffd5b505050506040513d601f19601f8201168201806040525081019061169c919061526e565b6040518263ffffffff1660e01b81526004016116ba91815260200190565b602060405180830381865afa1580156116d5573d5f803e3d5ffd5b505050506040513d601f19601f820116820180604052508101906116f9919061526e565b90506117058482612593565b9350611713868686866127e6565b505b61171e8561311d565b611726610a2c565b5f0361119f57604051630e5a744960e41b815260040160405180910390fd5b604080515f815260208101909152606090826001600160401b0381111561176e5761176e614c43565b6040519080825280602002602001820160405280156117a157816020015b606081526020019060019003908161178c5790505b5091505f5b83811015611822576117fd308686848181106117c4576117c461525a565b90506020028101906117d69190615312565b856040516020016117e99392919061536b565b60405160208183030381529060405261326e565b83828151811061180f5761180f61525a565b60209081029190910101526001016117a6565b505092915050565b5f610c0a8260016125cf565b5f61183f611e4f565b611847612df2565b610d1d8484846132e0565b5f61185b611e4f565b611863612df2565b610d1d8484846132fe565b5f8061187983610fce565b90505f5f1982146118935761188e825f611eb0565b611896565b5f195b90506118a581610fe386613312565b949350505050565b5f6118b6611e20565b610c0a82611b53565b5f610c0a6118cb61333f565b610fe3846133b6565b834211156118f85760405163313c898160e11b8152600481018590526024016110fc565b5f7f6e71edae12b1b97f4d1f60370fef10105fa2faae0126114a169c64845d6126c98888886119628c6001600160a01b03165f9081527f5ab42ced628888259c08ac98db1eb0cf702fc1501344311d8b100cd1bfe4bb006020526040902080546001810190915590565b6040805160208101969096526001600160a01b0394851690860152929091166060840152608083015260a082015260c0810186905260e0016040516020818303038152906040528051906020012090505f6119bc826133cc565b90505f6119cb828787876133f8565b9050896001600160a01b0316816001600160a01b031614611a12576040516325c0072360e11b81526001600160a01b0380831660048301528b1660248201526044016110fc565b611a1d8a8a8a613424565b50505050505050505050565b5f611a32611e20565b5f8051602061571d833981519152805483908110611a5257611a5261525a565b5f918252602090912001546001600160a01b031692915050565b5f80611a77836118bf565b90505f5f198214611a9157611a8c825f611eb0565b611a94565b5f195b90506118a581610fe386613431565b6060611aad611e20565b610cad613447565b6001600160a01b039182165f9081527f52c63247e1f47db19d5ce0460030c497f067ca4cebf71ba98eeadabe20bace016020908152604080832093909416825291909152205490565b5f5f8051602061563d8339815191525b546001600160a01b0316919050565b611b25611e4f565b5f611b2f81611ef4565b610c77826134b0565b611b40611e4f565b5f611b4a81611ef4565b610c778261358a565b5f610c0a825f611eb0565b611b66611e4f565b611b6e6127ac565b7f17a8e30262c1f919c33056d877a3c22b95c2f5e4dac44683c1c2323cd79fbdb0611b9881611ef4565b5f8051602061571d8339815191528054838114611bd257604051631f4bb7c160e31b815260048101829052602481018590526044016110fc565b5f5b81811015611cfa57611c0b868683818110611bf157611bf161525a565b9050602002016020810190611c069190614bea565b61238a565b611c5b57858582818110611c2157611c2161525a565b9050602002016020810190611c369190614bea565b604051633ae252cd60e21b81526001600160a01b0390911660048201526024016110fc565b5f611c67826001615299565b90505b82811015611cf157868682818110611c8457611c8461525a565b9050602002016020810190611c999190614bea565b6001600160a01b0316878784818110611cb457611cb461525a565b9050602002016020810190611cc99190614bea565b6001600160a01b031603611ce957868683818110611c2157611c2161525a565b600101611c6a565b50600101611bd4565b505f5b81811015611e06575f835f018281548110611d1a57611d1a61525a565b5f918252602090912001546001600160a01b03169050868683818110611d4257611d4261525a565b9050602002016020810190611d579190614bea565b845f018381548110611d6b57611d6b61525a565b905f5260205f20015f6101000a8154816001600160a01b0302191690836001600160a01b0316021790555081878784818110611da957611da961525a565b9050602002016020810190611dbe9190614bea565b6001600160a01b0316826001600160a01b03167f11d8593881095d510e51d5617699f2674b01890b9f5816abfe33c40f4932882460405160405180910390a450600101611cfd565b5050505061106860015f8051602061575d83398151915255565b5f8051602061575d83398151915254600203610fcc57604051633ee5aeb560e01b815260040160405180910390fd5b5f8051602061575d833981519152805460011901611e8057604051633ee5aeb560e01b815260040160405180910390fd5b60029055565b5f33611e93818585613424565b5060019392505050565b60015f8051602061575d83398151915255565b5f610d35611ebf82600a615463565b5f8051602061569d83398151915254611ed89190615299565b611ee0610a2c565b611eeb906001615299565b85919085613632565b611efc611afe565b6001600160a01b03166391d1485482336040516001600160e01b031960e085901b16815260048101929092526001600160a01b03166024820152604401602060405180830381865afa158015611f54573d5f803e3d5ffd5b505050506040513d601f19601f82011682018060405250810190611f789190615471565b610c8e5760405163e2517d3f60e01b8152336004820152602481018290526044016110fc565b7f83cbba01667a5ddf3820f0a2c4220dbc355a1a788c7094daad71b73a418b0d018054908290556040515f8051602061563d8339815191529190839082907ffff0e599b3c11909c76f6ae341845496f4754265c277920935aa989434b611cf905f90a3505050565b6001600160a01b03831661202d5760405163e99d5ac560e01b815260040160405180910390fd5b6120368361238a565b1561205f57604051633ae252cd60e21b81526001600160a01b03841660048201526024016110fc565b816001600160a01b0316836001600160a01b03166338d52e0f6040518163ffffffff1660e01b8152600401602060405180830381865afa1580156120a5573d5f803e3d5ffd5b505050506040513d601f19601f820116820180604052508101906120c991906152e4565b6001600160a01b03161415806121505750806001600160a01b0316836001600160a01b031663de9375f26040518163ffffffff1660e01b8152600401602060405180830381865afa158015612120573d5f803e3d5ffd5b505050506040513d601f19601f8201168201806040525081019061214491906152e4565b6001600160a01b031614155b1561217957604051633ae252cd60e21b81526001600160a01b03841660048201526024016110fc565b5f8051602061571d83398151915280546001810182555f8281527fbd3b60dada78b9553105038e485344c290642e896a2040a87e5442d9a8f189d390910180546001600160a01b0319166001600160a01b03871690811790915560405190917f3f008fd510eae7a9e7bee13513d7b83bef8003d488b5a3d0b0da4de71d6846f191a28054600a10156111be57805460405163a0c5dde760e01b81526004810191909152600a60248201526044016110fc565b7fbe95051ceb3f91d85436579dcb05e73839fcf7ec679038845ee9df7027ce18e36122615f8051602061569d8339815191525490565b612269610a2c565b6040805192835260208301919091520160405180910390a1565b5f33612290858285613674565b61229b8585856136bf565b506001949350505050565b5f807ff0c57e16840df040f15088dc2f81fe391c3923bec73e23a9662efc9c229c6a00610c3d565b6122d661371c565b6122df8261358a565b611068816134b0565b670de0b6b3a7640000811115612314576040516322643c8760e21b8152600481018290526024016110fc565b7f851713d8b7886cdb5682ccb4d2dba1bf8cae30c699ce588016da31dab5d7f10180549082905560408051828152602081018490525f8051602061571d83398151915292917ff7e9c2b164c5e7510b6027354248eae9ab7974293420bcba68421fced24c4a2491015b60405180910390a1505050565b5f8051602061571d83398151915280545f9190825b818110156123f157846001600160a01b0316835f0182815481106123c5576123c561525a565b5f918252602090912001546001600160a01b0316036123e957506001949350505050565b60010161239f565b505f949350505050565b5f807f0773e532dfede91f04b12a73d3d2acd361424f41f76b4fb79f090161e36b4e0090505f81546124379190600160a01b900460ff16615490565b91505090565b5f610cad613741565b61244e6137b4565b5f8051602061573d833981519152805460ff191681557f5db9ee0a495bf2e6ff9c91a7834c1ba4fdd244a5e8aa4e537bd38aeae4b073aa335b6040516001600160a01b03909116815260200160405180910390a150565b5f8051602061571d83398151915280545f9190825b81811015610b4d5761255284845f0183815481106124da576124da61525a565b5f9182526020909120015460405163402d267d60e01b81523060048201526001600160a01b039091169063402d267d906024015b602060405180830381865afa158015612529573d5f803e3d5ffd5b505050506040513d601f19601f8201168201806040525081019061254d919061526e565b6137e3565b93506001016124ba565b5f612565613804565b61258c575f196125736125a2565b146125855761258061388a565b610c0a565b5f19610c0a565b5f92915050565b5f828218828410028218610d35565b5f5f8051602061563d8339815191525b60010154905090565b5f5f805160206156fd8339815191526125b2565b5f610d356125db610a2c565b6125e6906001615299565b6125f15f600a615463565b5f8051602061569d83398151915254611eeb9190615299565b306001600160a01b037f000000000000000000000000000000000000000000000000000000000000000016148061267a57507f00000000000000000000000000000000000000000000000000000000000000006001600160a01b031661266e6138a3565b6001600160a01b031614155b15610fcc5760405163703e46dd60e11b815260040160405180910390fd5b5f61106881611ef4565b816001600160a01b03166352d1902d6040518163ffffffff1660e01b8152600401602060405180830381865afa9250505080156126fc575060408051601f3d908101601f191682019092526126f99181019061526e565b60015b61272457604051634c9c8ce360e01b81526001600160a01b03831660048201526024016110fc565b5f805160206156dd833981519152811461275457604051632a87526960e21b8152600481018290526024016110fc565b61275e83836138b7565b505050565b306001600160a01b037f00000000000000000000000000000000000000000000000000000000000000001614610fcc5760405163703e46dd60e11b815260040160405180910390fd5b6127b4613804565b15610fcc5760405163d93c066560e01b815260040160405180910390fd5b5f5f8051602061571d8339815191526125b2565b6040516370a0823160e01b81523060048201525f906001600160a01b038516906307a2d13a9082906370a0823190602401602060405180830381865afa158015612832573d5f803e3d5ffd5b505050506040513d601f19601f82011682018060405250810190612856919061526e565b6040518263ffffffff1660e01b815260040161287491815260200190565b602060405180830381865afa15801561288f573d5f803e3d5ffd5b505050506040513d601f19601f820116820180604052508101906128b3919061526e565b6040516370a0823160e01b81523060048201526001600160a01b038716906307a2d13a9082906370a0823190602401602060405180830381865afa1580156128fd573d5f803e3d5ffd5b505050506040513d601f19601f82011682018060405250810190612921919061526e565b6040518263ffffffff1660e01b815260040161293f91815260200190565b602060405180830381865afa15801561295a573d5f803e3d5ffd5b505050506040513d601f19601f8201168201806040525081019061297e919061526e565b6129889190615299565b90505f612993610f60565b6040516370a0823160e01b81523060048201526001600160a01b0391909116906370a0823190602401602060405180830381865afa1580156129d7573d5f803e3d5ffd5b505050506040513d601f19601f820116820180604052508101906129fb919061526e565b90508315612a7a57604051632d182be560e21b815260048101859052306024820181905260448201526001600160a01b0387169063b460af94906064016020604051808303815f875af1158015612a54573d5f803e3d5ffd5b505050506040513d601f19601f82011682018060405250810190612a78919061526e565b505b5f612a83610f60565b6040516370a0823160e01b81523060048201526001600160a01b0391909116906370a0823190602401602060405180830381865afa158015612ac7573d5f803e3d5ffd5b505050506040513d601f19601f82011682018060405250810190612aeb919061526e565b90505f612af883836152ff565b90508015612b8d57612b1d8782612b0d610f60565b6001600160a01b0316919061390c565b604051636e553f6560e01b8152600481018290523060248201526001600160a01b03881690636e553f65906044016020604051808303815f875af1158015612b67573d5f803e3d5ffd5b505050506040513d601f19601f82011682018060405250810190612b8b919061526e565b505b6040516370a0823160e01b81523060048201525f906001600160a01b038916906307a2d13a9082906370a0823190602401602060405180830381865afa158015612bd9573d5f803e3d5ffd5b505050506040513d601f19601f82011682018060405250810190612bfd919061526e565b6040518263ffffffff1660e01b8152600401612c1b91815260200190565b602060405180830381865afa158015612c36573d5f803e3d5ffd5b505050506040513d601f19601f82011682018060405250810190612c5a919061526e565b6040516370a0823160e01b81523060048201526001600160a01b038b16906307a2d13a9082906370a0823190602401602060405180830381865afa158015612ca4573d5f803e3d5ffd5b505050506040513d601f19601f82011682018060405250810190612cc8919061526e565b6040518263ffffffff1660e01b8152600401612ce691815260200190565b602060405180830381865afa158015612d01573d5f803e3d5ffd5b505050506040513d601f19601f82011682018060405250810190612d25919061526e565b612d2f9190615299565b90505f612d458789670de0b6b3a76400006139c9565b9050612d518282615299565b861115612d90576040516304e32bab60e41b8152600481018790526024810183905260448101829052606481018990526084810188905260a4016110fc565b886001600160a01b03168a6001600160a01b03167f81a143d873eb13ec2d7efc6f49d2ce680716e4d295f3340c68e601c317fb1595858a604051612dde929190918252602082015260400190565b60405180910390a350505050505050505050565b7f8133214f360747da779e5436efd7332b025d67830fc92a23fa9b9e5e4b87fd01545f805160206156fd833981519152905f03612e2c5750565b5f612e35613a79565b82549091508082111561275e575f612e4d82846152ff565b90505f612e7782612e695f8051602061569d8339815191525490565b670de0b6b3a76400006139c9565b90505f612e91828760010154670de0b6b3a76400006139c9565b90505f612edf82612ea383600a615463565b5f8051602061569d83398151915254612ebc9190615299565b84612ec5610a2c565b612ed0906001615299565b612eda91906152ff565b6139c9565b90508015612f5a576002870154612eff906001600160a01b031682613acc565b612f0f612f0a613a79565b613b00565b600287015460408051838152602081018590526001600160a01b03909216917f74e325cf88102b892b2796a1db2f772360b0b33fbdea0c4e3ed24fa9755fe0c5910160405180910390a25b50505050505050565b5f612f6c6127ac565b612f768383613b49565b9050610c3d61222b565b5f807f5ab42ced628888259c08ac98db1eb0cf702fc1501344311d8b100cd1bfe4bb006111f0565b612fb0613b95565b5f8051602061573d833981519152805460ff191660011781557f62e78cea01bee320cd4e420270b5ea74000d11b0c9f74754ebdbfc544b05a25833612487565b7fa16a46d94261c7517cc8ff89f61c0ce93598e3c849801011dee649a6a557d10280546060915f805160206156bd83398151915291610b76906152ac565b60605f5f805160206156bd833981519152610b65565b5f61304d6127ac565b612f768383613bac565b61305f61371c565b610c8e81613bf8565b61307061371c565b6110688282613c7b565b61308261371c565b610c8e81604051806040016040528060018152602001603160f81b815250613ccb565b6130ad61371c565b610fcc613d2a565b610fcc61371c565b305f6130c882610fce565b9050808311156130f157818382604051633c8097d960e11b81526004016110fc939291906154a9565b5f6130fb84611b53565b905061310985848684613d32565b5050505050565b5f33611e938185856136bf565b5f8051602061571d8339815191525f5b815481101561275e57826001600160a01b0316825f0182815481106131545761315461525a565b5f918252602090912001546001600160a01b03160361326657805b825461317d906001906152ff565b8110156131fb5782613190826001615299565b815481106131a0576131a061525a565b5f9182526020909120015483546001600160a01b03909116908490839081106131cb576131cb61525a565b5f91825260209091200180546001600160a01b0319166001600160a01b039290921691909117905560010161316f565b50815482908061320d5761320d6154ca565b5f8281526020812082015f1990810180546001600160a01b03191690559091019091556040516001600160a01b038516917f09a1db4b80c32706328728508c941a6b954f31eb5affd32f236c1fd405f8fea491a2505050565b60010161312d565b60605f80846001600160a01b03168460405161328a91906154de565b5f60405180830381855af49150503d805f81146132c2576040519150601f19603f3d011682016040523d82523d5f602084013e6132c7565b606091505b50915091506132d7858383613f29565b95945050505050565b5f6132e96127ac565b6132f4848484613f85565b9050610d3561222b565b5f6133076127ac565b6132f4848484613fd2565b5f61331b613804565b61258c575f196133296125a2565b146125855761258061333961388a565b5f611eb0565b5f8051602061571d83398151915280545f9190825b81811015610b4d576133ac84845f0183815481106133745761337461525a565b5f9182526020909120015460405163ce96cb7760e01b81523060048201526001600160a01b039091169063ce96cb779060240161250e565b9350600101613354565b5f6133bf613804565b61258c576125808261401f565b5f610c0a6133d861243d565b8360405161190160f01b8152600281019290925260228201526042902090565b5f805f8061340888888888614032565b92509250925061341882826140fa565b50909695505050505050565b61275e83838360016141b2565b5f61343a613804565b61258c5761258082614295565b60605f8051602061571d8339815191528054604080516020808402820181019092528281529291908301828280156134a657602002820191905f5260205f20905b81546001600160a01b03168152600190910190602001808311613488575b5050505050905090565b6706f05b59d3b200008111156134ea57604051639f267a1160e01b8152600481018290526706f05b59d3b2000060248201526044016110fc565b7f8133214f360747da779e5436efd7332b025d67830fc92a23fa9b9e5e4b87fd01545f805160206156fd83398151915280549091905f613528613a79565b90508215801561353757505f85115b801561354257508082105b156135505761355081613b00565b60018401859055604051859084907fec752fd140b0567ddecc3a75eacd13201c091536e7e0731dcf143f5ee461bff7905f90a35050505050565b6001600160a01b0381166135b15760405163e99d5ac560e01b815260040160405180910390fd5b7f8133214f360747da779e5436efd7332b025d67830fc92a23fa9b9e5e4b87fd0280546001600160a01b031981166001600160a01b038481169182179093556040515f805160206156fd833981519152939092169182907f15d80a013f22151bc7246e3bc132e12828cde19de98870475e3fa70840152721905f90a3505050565b5f61365f61363f8361429f565b801561365a57505f8480613655576136556154e9565b868809115b151590565b61366a8686866139c9565b6132d79190615299565b5f61367f8484611ab5565b90505f198110156111be57818110156136b157828183604051637dc7a0d960e11b81526004016110fc939291906154a9565b6111be84848484035f6141b2565b6001600160a01b0383166136e857604051634b637e8f60e11b81525f60048201526024016110fc565b6001600160a01b0382166137115760405163ec442f0560e01b81525f60048201526024016110fc565b61275e8383836142cb565b6137246143f1565b610fcc57604051631afcd79f60e31b815260040160405180910390fd5b5f7f8b73c3c69bb8fe3d512ecc4cf759cc79239f7b179b0ffacaa9a75d522b39400f61376b61440a565b613773614472565b60408051602081019490945283019190915260608201524660808201523060a082015260c00160405160208183030381529060405280519060200120905090565b5f8051602061573d8339815191525460ff16610fcc57604051638dfc202b60e01b815260040160405180910390fd5b5f805f6137f085856144b4565b90925090505f1980821883151502186132d7565b5f61381d5f8051602061573d8339815191525460ff1690565b80610cad575061382b611afe565b6001600160a01b0316635c975abb6040518163ffffffff1660e01b8152600401602060405180830381865afa158015613866573d5f803e3d5ffd5b505050506040513d601f19601f82011682018060405250810190610cad9190615471565b5f610cad6138966125a2565b61389e610a2c565b6144cc565b5f5f805160206156dd833981519152611b0e565b6138c0826144d8565b6040516001600160a01b038316907fbc7cd75a20ee27fd9adebab32041f755214dbc6bffa90cc0225b39da2e5c2d3b905f90a28051156139045761275e828261326e565b61106861453b565b604080516001600160a01b038416602482015260448082018490528251808303909101815260649091019091526020810180516001600160e01b031663095ea7b360e01b17905261395d848261455a565b6111be576040516001600160a01b0384811660248301525f60448301526139bf91869182169063095ea7b3906064015b604051602081830303815290604052915060e01b6020820180516001600160e01b0383818316178352505050506145a3565b6111be84826145a3565b5f805f6139d6868661460f565b91509150815f036139fa578381816139f0576139f06154e9565b0492505050610d35565b818411613a1157613a11600385150260111861462b565b5f848688095f868103871696879004966002600389028118808a02820302808a02820302808a02820302808a02820302808a02820302808a02909103029181900381900460010185841190960395909502919093039390930492909217029150509392505050565b5f80613a83610a2c565b90505f613a9b5f8051602061569d8339815191525490565b90505f8111613ab257670de0b6b3a7640000613ac5565b613ac582670de0b6b3a7640000836139c9565b9250505090565b6001600160a01b038216613af55760405163ec442f0560e01b81525f60048201526024016110fc565b6110685f83836142cb565b5f805160206156fd833981519152805482825560408051828152602081018590527f03f8f938dbe4475565f0cf1c3dcf09728208c2c6065e1f717102058c51e94d06910161237d565b5f80613b5483610fce565b905080841115613b7d57828482604051633c8097d960e11b81526004016110fc939291906154a9565b5f613b8785611b53565b90506118a533858784613d32565b5f8051602061573d8339815191525460ff166127b4565b5f80613bb78361186e565b905080841115613be05782848260405163284ff66760e01b81526004016110fc939291906154a9565b5f613bea8561182a565b90506118a533858388613d32565b613c0061371c565b7f0773e532dfede91f04b12a73d3d2acd361424f41f76b4fb79f090161e36b4e005f80613c2c8461463c565b9150915081613c3c576012613c3e565b805b83546001600160a81b031916600160a01b60ff92909216919091026001600160a01b031916176001600160a01b0394909416939093179091555050565b613c8361371c565b5f8051602061567d8339815191527f52c63247e1f47db19d5ce0460030c497f067ca4cebf71ba98eeadabe20bace03613cbc8482615541565b50600481016111be8382615541565b613cd361371c565b5f805160206156bd8339815191527fa16a46d94261c7517cc8ff89f61c0ce93598e3c849801011dee649a6a557d102613d0c8482615541565b5060038101613d1b8382615541565b505f8082556001909101555050565b611e9d61371c565b613d3a6143f1565b15613d425750805b613d4e84848484614712565b5f8051602061571d83398151915280548391905f5b81811015613ef9578315613ef9575f835f018281548110613d8657613d8661525a565b5f91825260208220015460405163402d267d60e01b81523060048201526001600160a01b039091169250829063402d267d90602401602060405180830381865afa158015613dd6573d5f803e3d5ffd5b505050506040513d601f19601f82011682018060405250810190613dfa919061526e565b90505f613e078783612593565b90508015613eeb57613e1c8382612b0d610f60565b604051636e553f6560e01b8152600481018290523060248201526001600160a01b03841690636e553f65906044016020604051808303815f875af1925050508015613e84575060408051601f3d908101601f19168201909252613e819181019061526e565b60015b613edd57826001600160a01b03167fb25cefcd019c9ac00557fa1cae5f952455cd9ad7b058f91d66e1bbe895e31ece82604051613ec391815260200190565b60405180910390a2613ed8835f612b0d610f60565b613eeb565b50613ee881886152ff565b96505b505050806001019050613d63565b508215612f5a5760405162aea97b60e61b81526004810186905260248101859052604481018490526064016110fc565b606082613f3e57613f3982614749565b610d35565b8151158015613f5557506001600160a01b0384163b155b15613f7e57604051639996b31560e01b81526001600160a01b03851660048201526024016110fc565b5080610d35565b5f80613f90836118bf565b905080851115613fb957828582604051633fa733bb60e21b81526004016110fc939291906154a9565b5f613fc386610c43565b90506132d73386868985614772565b5f80613fdd83611a6c565b90508085111561400657828582604051632e52afbb60e21b81526004016110fc939291906154a9565b5f61401086611042565b90506132d7338686848a614772565b5f610c0a61402c836111df565b5f6125cf565b5f80807f7fffffffffffffffffffffffffffffff5d576e7357a4501ddfe92f46681b20a084111561406b57505f915060039050826140f0565b604080515f808252602082018084528a905260ff891692820192909252606081018790526080810186905260019060a0016020604051602081039080840390855afa1580156140bc573d5f803e3d5ffd5b5050604051601f1901519150506001600160a01b0381166140e757505f9250600191508290506140f0565b92505f91508190505b9450945094915050565b5f82600381111561410d5761410d6155fb565b03614116575050565b600182600381111561412a5761412a6155fb565b036141485760405163f645eedf60e01b815260040160405180910390fd5b600282600381111561415c5761415c6155fb565b0361417d5760405163fce698f760e01b8152600481018290526024016110fc565b6003826003811115614191576141916155fb565b03611068576040516335e2f38360e21b8152600481018290526024016110fc565b5f8051602061567d8339815191526001600160a01b0385166141e95760405163e602df0560e01b81525f60048201526024016110fc565b6001600160a01b03841661421257604051634a1406b160e11b81525f60048201526024016110fc565b6001600160a01b038086165f9081526001830160209081526040808320938816835292905220839055811561310957836001600160a01b0316856001600160a01b03167f8c5be1e5ebec7d5bd14f71427d1e84f3dd0314c0f7b2291e5b200ac8c7c3b9258560405161428691815260200190565b60405180910390a35050505050565b5f610c0a826111df565b5f60028260038111156142b4576142b46155fb565b6142be919061560f565b60ff166001149050919050565b5f8051602061567d8339815191526001600160a01b0384166143055781816002015f8282546142fa9190615299565b909155506143629050565b6001600160a01b0384165f90815260208290526040902054828110156143445784818460405163391434e360e21b81526004016110fc939291906154a9565b6001600160a01b0385165f9081526020839052604090209083900390555b6001600160a01b03831661438057600281018054839003905561439e565b6001600160a01b0383165f9081526020829052604090208054830190555b826001600160a01b0316846001600160a01b03167fddf252ad1be2c89b69c2b068fc378daa952ba7f163c4a11628f55a4df523b3ef846040516143e391815260200190565b60405180910390a350505050565b5f6143fa6122a6565b54600160401b900460ff16919050565b5f5f805160206156bd83398151915281614422612ff0565b80519091501561443a57805160209091012092915050565b81548015614449579392505050565b7fc5d2460186f7233c927e7db2dcc703c0e500b653ca82273b7bfad8045d85a470935050505090565b5f5f805160206156bd8339815191528161448a61302e565b8051909150156144a257805160209091012092915050565b60018201548015614449579392505050565b80820182811015905f90825b81029150509250929050565b5f806132d78484614952565b806001600160a01b03163b5f0361450d57604051634c9c8ce360e01b81526001600160a01b03821660048201526024016110fc565b5f805160206156dd83398151915280546001600160a01b0319166001600160a01b0392909216919091179055565b3415610fcc5760405163b398979f60e01b815260040160405180910390fd5b5f805f8060205f8651602088015f8a5af192503d91505f5190508280156145995750811561458b5780600114614599565b5f866001600160a01b03163b115b9695505050505050565b5f8060205f8451602086015f885af1806145c2576040513d5f823e3d81fd5b50505f513d915081156145d95780600114156145e6565b6001600160a01b0384163b155b156111be57604051635274afe760e01b81526001600160a01b03851660048201526024016110fc565b5f805f1983850993909202808410938190039390930393915050565b634e487b715f52806020526024601cfd5b60408051600481526024810182526020810180516001600160e01b031663313ce56760e01b17905290515f918291829182916001600160a01b03871691614682916154de565b5f60405180830381855afa9150503d805f81146146ba576040519150601f19603f3d011682016040523d82523d5f602084013e6146bf565b606091505b50915091508180156146d357506020815110155b15614706575f818060200190518101906146ed919061526e565b905060ff8111614704576001969095509350505050565b505b505f9485945092505050565b5f8211801561471f575080155b1561473d57604051630e5a744960e41b815260040160405180910390fd5b6111be84848484614962565b8051156147595780518082602001fd5b60405163d6bda27560e01b815260040160405180910390fd5b5f8051602061571d83398151915280548391905f5b8181101561490a57831561490a575f835f0182815481106147aa576147aa61525a565b5f91825260208220015460405163ce96cb7760e01b81523060048201526001600160a01b039091169250829063ce96cb7790602401602060405180830381865afa1580156147fa573d5f803e3d5ffd5b505050506040513d601f19601f8201168201806040525081019061481e919061526e565b90505f61482b8783612593565b905080156148fc57604051632d182be560e21b815260048101829052306024820181905260448201526001600160a01b0384169063b460af94906064016020604051808303815f875af19250505080156148a2575060408051601f3d908101601f1916820190925261489f9181019061526e565b60015b6148ee57826001600160a01b03167fa2269912b47133fae1d7f448c9284ea248951ac29b8c7c41d301f8721a38d10d826040516148e191815260200190565b60405180910390a26148fc565b506148f981886152ff565b96505b505050806001019050614787565b50821561493b5760405163e971065160e01b81526004810186905260248101859052604481018490526064016110fc565b61494888888888886149cd565b5050505050505050565b80820382811115905f90826144c0565b61497561496d610f60565b853085614a05565b61497f8382613acc565b826001600160a01b0316846001600160a01b03167fdcbc1c05240f31ff3ad067ef1ee35ce4997762752e3a095284754544f4c709d784846040516143e3929190918252602082015260400190565b5f811180156149da575081155b156149f857604051630e5a744960e41b815260040160405180910390fd5b6131098585858585614a3e565b6040516001600160a01b0384811660248301528381166044830152606482018390526111be9186918216906323b872dd9060840161398d565b826001600160a01b0316856001600160a01b031614614a6257614a62838683613674565b614a6c8382614ae5565b614a7e614a77610f60565b8584614b19565b826001600160a01b0316846001600160a01b0316866001600160a01b03167ffbde797d201c681b91056529119e0b02407c7bb96a4a2c75c01fc9667232c8db8585604051614ad6929190918252602082015260400190565b60405180910390a45050505050565b6001600160a01b038216614b0e57604051634b637e8f60e11b81525f60048201526024016110fc565b611068825f836142cb565b6040516001600160a01b0383811660248301526044820183905261275e91859182169063a9059cbb9060640161398d565b5f81518084528060208401602086015e5f602082860101526020601f19601f83011685010191505092915050565b602081525f610d356020830184614b4a565b5f60208284031215614b9a575f80fd5b5035919050565b6001600160a01b0381168114610c8e575f80fd5b8035610c0d81614ba1565b5f8060408385031215614bd1575f80fd5b8235614bdc81614ba1565b946020939093013593505050565b5f60208284031215614bfa575f80fd5b8135610d3581614ba1565b5f805f60608486031215614c17575f80fd5b8335614c2281614ba1565b92506020840135614c3281614ba1565b929592945050506040919091013590565b634e487b7160e01b5f52604160045260245ffd5b604051601f8201601f191681016001600160401b0381118282101715614c7f57614c7f614c43565b604052919050565b5f806001600160401b03841115614ca057614ca0614c43565b50601f8301601f1916602001614cb581614c57565b915050828152838383011115614cc9575f80fd5b828260208301375f602084830101529392505050565b5f82601f830112614cee575f80fd5b610d3583833560208501614c87565b5f82601f830112614d0c575f80fd5b81356001600160401b03811115614d2557614d25614c43565b8060051b614d3560208201614c57565b91825260208185018101929081019086841115614d50575f80fd5b6020860192505b83831015614599578235614d6a81614ba1565b825260209283019290910190614d57565b5f805f805f805f60e0888a031215614d91575f80fd5b8735614d9c81614ba1565b9650614daa60208901614bb5565b955060408801356001600160401b03811115614dc4575f80fd5b614dd08a828b01614cdf565b95505060608801356001600160401b03811115614deb575f80fd5b614df78a828b01614cdf565b945050614e0660808901614bb5565b925060a0880135915060c08801356001600160401b03811115614e27575f80fd5b614e338a828b01614cfd565b91505092959891949750929550565b5f8060408385031215614e53575f80fd5b8235614e5e81614ba1565b915060208301356001600160401b03811115614e78575f80fd5b8301601f81018513614e88575f80fd5b614e9785823560208401614c87565b9150509250929050565b5f805f8060808587031215614eb4575f80fd5b8435614ebf81614ba1565b93506020850135614ecf81614ba1565b93969395505050506040820135916060013590565b5f8060408385031215614ef5575f80fd5b823591506020830135614f0781614ba1565b809150509250929050565b60ff60f81b8816815260e060208201525f614f3060e0830189614b4a565b8281036040840152614f428189614b4a565b606084018890526001600160a01b038716608085015260a0840186905283810360c0850152845180825260208087019350909101905f5b81811015614f97578351835260209384019390920191600101614f79565b50909b9a5050505050505050505050565b5f805f805f8060c08789031215614fbd575f80fd5b8635614fc881614ba1565b95506020870135614fd881614ba1565b945060408701356001600160401b03811115614ff2575f80fd5b614ffe89828a01614cdf565b94505060608701356001600160401b03811115615019575f80fd5b61502589828a01614cdf565b935050608087013561503681614ba1565b9598949750929591949360a090920135925050565b5f8083601f84011261505b575f80fd5b5081356001600160401b03811115615071575f80fd5b6020830191508360208260051b850101111561508b575f80fd5b9250929050565b5f80602083850312156150a3575f80fd5b82356001600160401b038111156150b8575f80fd5b6150c48582860161504b565b90969095509350505050565b5f602082016020835280845180835260408501915060408160051b8601019250602086015f5b8281101561512757603f19878603018452615112858351614b4a565b945060209384019391909101906001016150f6565b50929695505050505050565b5f805f60608486031215615145575f80fd5b83359250602084013561515781614ba1565b9150604084013561516781614ba1565b809150509250925092565b5f805f805f805f60e0888a031215615188575f80fd5b873561519381614ba1565b965060208801356151a381614ba1565b95506040880135945060608801359350608088013560ff811681146151c6575f80fd5b9699959850939692959460a0840135945060c09093013592915050565b602080825282518282018190525f918401906040840190835b818110156152235783516001600160a01b03168352602093840193909201916001016151fc565b509095945050505050565b5f806040838503121561523f575f80fd5b823561524a81614ba1565b91506020830135614f0781614ba1565b634e487b7160e01b5f52603260045260245ffd5b5f6020828403121561527e575f80fd5b5051919050565b634e487b7160e01b5f52601160045260245ffd5b80820180821115610c3d57610c3d615285565b600181811c908216806152c057607f821691505b6020821081036152de57634e487b7160e01b5f52602260045260245ffd5b50919050565b5f602082840312156152f4575f80fd5b8151610d3581614ba1565b81810381811115610c3d57610c3d615285565b5f808335601e19843603018112615327575f80fd5b8301803591506001600160401b03821115615340575f80fd5b60200191503681900382131561508b575f80fd5b5f81518060208401855e5f93019283525090919050565b828482375f8382015f81526145998185615354565b6001815b60018411156153bb5780850481111561539f5761539f615285565b60018416156153ad57908102905b60019390931c928002615384565b935093915050565b5f826153d157506001610c3d565b816153dd57505f610c3d565b81600181146153f357600281146153fd57615419565b6001915050610c3d565b60ff84111561540e5761540e615285565b50506001821b610c3d565b5060208310610133831016604e8410600b841016171561543c575081810a610c3d565b6154485f198484615380565b805f190482111561545b5761545b615285565b029392505050565b5f610d3560ff8416836153c3565b5f60208284031215615481575f80fd5b81518015158114610d35575f80fd5b60ff8181168382160190811115610c3d57610c3d615285565b6001600160a01b039390931683526020830191909152604082015260600190565b634e487b7160e01b5f52603160045260245ffd5b5f610d358284615354565b634e487b7160e01b5f52601260045260245ffd5b601f82111561275e57805f5260205f20601f840160051c810160208510156155225750805b601f840160051c820191505b81811015613109575f815560010161552e565b81516001600160401b0381111561555a5761555a614c43565b61556e8161556884546152ac565b846154fd565b6020601f8211600181146155a0575f83156155895750848201515b5f19600385901b1c1916600184901b178455613109565b5f84815260208120601f198516915b828110156155cf57878501518255602094850194600190920191016155af565b50848210156155ec57868401515f19600387901b60f8161c191681555b50505050600190811b01905550565b634e487b7160e01b5f52602160045260245ffd5b5f60ff83168061562d57634e487b7160e01b5f52601260045260245ffd5b8060ff8416069150509291505056fe83cbba01667a5ddf3820f0a2c4220dbc355a1a788c7094daad71b73a418b0d00d1473398bb66596de5d1ea1fc8e303ff2ac23265adc9144b1b52065dc4f0934b52c63247e1f47db19d5ce0460030c497f067ca4cebf71ba98eeadabe20bace0052c63247e1f47db19d5ce0460030c497f067ca4cebf71ba98eeadabe20bace02a16a46d94261c7517cc8ff89f61c0ce93598e3c849801011dee649a6a557d100360894a13ba1a3210667c828492db98dca3e2076cc3735a920a3ca505d382bbc8133214f360747da779e5436efd7332b025d67830fc92a23fa9b9e5e4b87fd00851713d8b7886cdb5682ccb4d2dba1bf8cae30c699ce588016da31dab5d7f100cd5ed15c6e187e77e9aee88184c21f4f2182ab5827cb3b7e07fbedcd63f033009b779b17422d0df92223018b32b4d1fa46e071723d6817e2486d003becc55f00a2646970667358221220a8aa94f2e8b958789c84ed7b76204f9060cbb7be85cf23ad0561b67bcf44e23664736f6c634300081a0033","linkReferences":{}},"methodIdentifiers":{"DOMAIN_SEPARATOR()":"3644e515","UPGRADE_INTERFACE_VERSION()":"ad3cb1cc","addStrategy(address)":"223e5479","allowance(address,address)":"dd62ed3e","approve(address,uint256)":"095ea7b3","asset()":"38d52e0f","auth()":"de9375f2","balanceOf(address)":"70a08231","convertToAssets(uint256)":"07a2d13a","convertToShares(uint256)":"c6e6f592","decimals()":"313ce567","deposit(uint256,address)":"6e553f65","eip712Domain()":"84b0196e","feeRecipient()":"46904840","highWaterMark()":"1e8410da","initialize(address,address,string,string,address,uint256)":"a01e3f74","initialize(address,address,string,string,address,uint256,address[])":"29d7b732","isStrategy(address)":"2e8ebaae","maxDeposit(address)":"402d267d","maxMint(address)":"c63d75b6","maxRedeem(address)":"d905777e","maxWithdraw(address)":"ce96cb77","mint(uint256,address)":"94bf804d","multicall(bytes[])":"ac9650d8","name()":"06fdde03","nonces(address)":"7ecebe00","pause()":"8456cb59","paused()":"5c975abb","performanceFeePercent()":"48f5b980","permit(address,address,uint256,uint256,uint8,bytes32,bytes32)":"d505accf","previewDeposit(uint256)":"ef8b30f7","previewMint(uint256)":"b3d7f6b9","previewRedeem(uint256)":"4cdad506","previewWithdraw(uint256)":"0a28a477","proxiableUUID()":"52d1902d","rebalance(address,address,uint256,uint256)":"6e49db1c","rebalanceMaxSlippagePercent()":"907d5405","redeem(uint256,address,address)":"ba087652","removeStrategy(address,address,uint256,uint256)":"ab3ffa1a","reorderStrategies(address[])":"f34e1217","setFeeRecipient(address)":"e74b981b","setPerformanceFeePercent(uint256)":"df652d41","setRebalanceMaxSlippagePercent(uint256)":"317b7224","setTotalAssetsCap(uint256)":"114fbced","strategies()":"d9f9027f","strategies(uint256)":"d574ea3d","strategiesCount()":"2489f7f7","symbol()":"95d89b41","totalAssets()":"01e1d114","totalAssetsCap()":"45f663dd","totalSupply()":"18160ddd","transfer(address,uint256)":"a9059cbb","transferFrom(address,address,uint256)":"23b872dd","unpause()":"3f4ba83a","upgradeToAndCall(address,bytes)":"4f1ef286","version()":"54fd4d50","withdraw(uint256,address,address)":"b460af94"},"id":83}